:100000000C9421050C943E050C943E050C943E0581
:100010000C943E050C943E050C943E050C943E0554
:100020000C943E050C943E050C943E050C943E0544
:100030000C943E050C943E050C943E050C943E0534
:100040000C943E050C943E050C943E050C943E0524
:100050000C943E050C949D0B0C943E050C943E05AF
:100060000C943E050C943E0507634236B79BD8A717
:100070001A39685618AEBAAB558C1D3CB7CC5763CD
:10008000BD6DEDFD753EF6177231BF000000803F7B
:1000900008000000BE922449123EABAAAA2ABECD97
:1000A000CCCC4C3E00000080BEABAAAAAA3E000009
:1000B0000000BF000000803F000000000008417801
:1000C000D3BB4387D1133D190E3CC3BD4282AD2B38
:1000D0003E68EC8276BED98FE1A93E4C80EFFFBE30
:1000E00001C4FF7F3F000000000063F84FF83CF8B8
:1000F00028F814F800F8EDF7D9F7C6F7B2F72BF99E
:1001000016F902F9EEF8DAF8C6F8B3F89FF88BF8AA
:1001100077F8F5F9E0F9CCF9B8F9A4F98FF97BF99A
:1001200067F953F93FF9C1FAADFA98FA84FA6FFA10
:100130005BFA46FA32FA1DFA09FA91FB7CFB67FB7F
:1001400052FB3EFB29FB14FBFFFAEBFAD6FA62FCEA
:100150004DFC38FC23FC0EFCF9FBE4FBCFFBBAFBA7
:10016000A6FB36FD21FD0CFDF6FCE1FCCCFCB7FC4A
:10017000A2FC8DFC77FC4CFD61FD76FD8CFDA1FDA4
:10018000B6FDCCFDE1FDF7FD0CFE22FE37FE4DFE77
:1001900063FE78FE8EFEA3FEB9FECFFEE4FEFAFEFD
:1001A00010FF26FF3BFF51FF67FF7DFF93FFA8FF76
:1001B000BEFFD4FFEAFF000016002C0042005800EA
:1001C0006E0084009A00B000C600DC00F200080156
:1001D0001E0134014A01610177018D01A301B901BA
:1001E000CF01E601FC01120228023F0255026B0218
:1001F00082029802AE02C502DB02F10208031E036E
:1002000035034B03610378038E03A503BB03D203BD
:10021000E803FF0315042C04420459047004860407
:100220009D04B304CA04E104F7040E0524053B054C
:10023000520568057F059605AD05C305DA05F1058C
:1002400007061E0635064C06630679069006A706C5
:10025000BE06D506EB0602071907300747075E07FB
:1002600075078B07A207B907D007E707FE07150830
:100270002C0843085A08710888089F08B608CD085A
:10028000E408FA08110928093F0956096D0984098B
:100290009B09B309CA09E109F8090F0A260A3D0AB0
:1002A000540A6B0A820A990AB00AC70ADE0AF50ADA
:1002B0000C0B230B3A0B510B680B800B970BAE0BFF
:1002C000C50BDC0BF30B0A0C210C380C4F0C660C25
:1002D0007D0C940CAC0CC30CDA0CF10C080D1F0D4A
:1002E000360D4D0D640D7B0D920DA90DC00DD80D71
:1002F000EF0D060E1D0E340E4B0E620E790E900E93
:10030000A70EBE0ED50EEC0E030F1A0F310F480FBD
:100310005F0F760F8D0FA40FBB0FD20FE90F0010E8
:1003200017102E1045105C1073108A10A110B81011
:10033000CF10E610FD1014112B11411158116F113F
:1003400086119D11B411CB11E211F9110F12261271
:100350003D1254126B1282129812AF12C612DD12A5
:10036000F4120A13211338134F1365137C139313DC
:10037000AA13C013D713EE1304141B143214481419
:100380005F1476148C14A314BA14D014E714FE145A
:1003900014152B15411558156F1585159C15B2159B
:1003A000C915DF15F6150C1623163A1650166716E2
:1003B0007D169316AA16C016D716ED1604171A172F
:1003C000311747175E1774178A17A117B717CE177B
:1003D000E417FA17111827183D1854186A188018CE
:1003E0009718AD18C318DA18F01806191D19331923
:1003F0004919601976198C19A219B919CF19E5197B
:10040000FC19121A281A3E1A551A6B1A811A971AD1
:10041000AD1AC41ADA1AF01A061B1D1B331B491B2E
:100420005F1B751B8C1BA21BB81BCE1BE41BFB1B8D
:10043000111C271C3D1C531C691C801C961CAC1CE9
:10044000C21CD81CEF1C051D1B1D311D471D5D1D49
:10045000741D8A1DA01DB61DCC1DE21DF91D0F1EA9
:10046000251E3B1E511E671E7E1E941EAA1EC01E08
:10047000D61EED1E031F191F2F1F451F5B1F721F66
:10048000881F9E1FB41FCA1FE11FF71F0D202320C6
:100490003A20502066207C209220A920BF20D52021
:1004A000EB20022118212E2144215B21712187217B
:1004B0009D21B421CA21E021F6210D2223223922D7
:1004C000502266227C229322A922BF22D622EC222D
:1004D000022319232F2345235C23722388239F2380
:1004E000B523CB23E223F8230F2425243B245224D5
:1004F00068247F249524AC24C224D824EF24052525
:100500001C25322549255F2576258C25A325B9256F
:10051000D025E625FD2513262A26402657266D26BA
:1005200084269A26B126C726DE26F5260B27222703
:1005300038274F2766277C279327A927C027D72747
:10054000ED2704281B28312848285E2875288C2888
:10055000A228B928D028E728FD2814292B294129C9
:1005600058296F2985299C29B329CA29E029F72907
:100570000E2A252A3B2A522A692A802A972AAD2A3E
:10058000C42ADB2AF22A092B1F2B362B4D2B642B76
:100590007B2B922BA82BBF2BD62BED2B042C1B2CAB
:1005A000312C482C5F2C762C8D2CA42CBB2CD22CDF
:1005B000E92CFF2C162D2D2D442D5B2D722D892D10
:1005C000A02DB72DCE2DE52DFC2D132E2A2E412E3C
:1005D000582E6F2E862E9D2EB42ECA2EE12EF82E6A
:1005E0000F2F262F3D2F542F6C2F832F9A2FB12F93
:1005F000C82FDF2FF62F0D3024303B3052306930BA
:1006000080309730AE30C530DC30F3300A312131E4
:100610003831503167317E319531AC31C331DA3107
:10062000F13108321F3237324E3265327C3293322A
:10063000AA32C132D832F03207331E3335334C334D
:1006400063337B339233A933C033D733EE3306346D
:100650001D3434344B34623479349134A834BF348B
:10066000D634ED3405351C3533354A3561357935A9
:100670009035A735BE35D635ED3504361B363236C6
:100680004A36613678368F36A736BE36D536EC36E2
:1006900004371B3732374A37613778378F37A737F8
:1006A000BE37D537EC3704381B3832384A38613812
:1006B00078388F38A738BE38D538ED3804391B392B
:1006C00033394A39613979399039A739BF39D6393F
:1006D000ED39053A1C3A333A4B3A623A793A913A53
:1006E000A83ABF3AD73AEE3A053B1D3B343B4B3B69
:1006F000633B7A3B923BA93BC03BD83BEF3B063C7C
:100700001E3C353C4D3C643C7B3C933CAA3CC23C8B
:10071000D93CF03C083D1F3D373D4E3D653D7D3D9C
:10072000943DAC3DC33DDA3DF23D093E213E383EAD
:10073000503E673E7E3E963EAD3EC53EDC3EF43EBC
:100740000B3F233F3A3F513F693F803F983FAF3FC8
:10075000C73FDE3FF63F0D4025403C4054406B40D4
:1007600083409A40B140C940E040F8400F412741E2
:100770003E4156416D4185419C41B441CB41E341ED
:10078000FA411242294241425842704287429F42F6
:10079000B642CE42E542FD4215432C4344435B43FF
:1007A00073438A43A243B943D143E8430044174407
:1007B0002F4446445E4476448D44A544BC44D4440E
:1007C000EB4403451A4532454A4561457945904514
:1007D000A845BF45D745EE4506461E4635464D461B
:1007E00064467C469446AB46C346DA46F246094721
:1007F00021473947504768477F479747AF47C64724
:10080000DE47F5470D4825483C4854486B48834827
:100810009B48B248CA48E148F9481149284940492B
:1008200058496F4987499E49B649CE49E549FD492E
:10083000154A2C4A444A5B4A734A8B4AA24ABA4A2E
:10084000D24AE94A014B184B304B484B5F4B774B30
:100850008F4BA64BBE4BD64BED4B054C1D4C344C31
:100860004C4C644C7B4C934CAA4CC24CDA4CF14C33
:10087000094D214D384D504D684D7F4D974DAF4D31
:10088000C64DDE4DF64D0D4E254E3D4E544E6C4E32
:10089000844E9B4EB34ECB4EE24EFA4E124F294F32
:1008A000414F594F704F884FA04FB74FCF4FE74F31
:1008B000FF4F16502E5046505D5075508D50A4502D
:1008C000BC50D450EB5003511B5132514A5162512C
:1008D00079519151A951C151D851F05108521F522B
:1008E00037524F5266527E529652AD52C552DD5229
:1008F000F4520C5324533C5353536B5383539A5326
:10090000B253CA53E153F953115428544054585424
:10091000705487549F54B754CE54E654FE54155522
:100920002D5545555C5574558C55A455BB55D3551F
:10093000EB5502561A56325649566156795690561C
:10094000A856C056D856EF5600407A10F35A00A069
:10095000724E18090010A5D4E80000E87648170088
:1009600000E40B54020000CA9A3B000000E1F505C8
:10097000000080969800000040420F000000A08612
:1009800001000000102700000000E8030000000044
:100990006400000000000A000000000001000000E8
:1009A00000002C76D888DC674F0823DFC1DFAE5902
:1009B000E1B1B796E5E3E453C63AE651997696E895
:1009C000E6C28426EB898C9B62ED407C6FFCEFBC19
:1009D0009C9F40F2BAA56FA5F490055A2AF75C9344
:1009E0006B6CF9676DC11BFCE0E40D47FEF520E67A
:1009F000B500D0ED902E0300943577050080841E5D
:100A0000080000204E0A000000C80C333333330FB7
:100A1000986E12831141EF8D2114893BE65516CF54
:100A2000FEE6DB18D1844B381BF77C1D901DA4BB60
:100A3000E424203284725E228100C9F124ECA1E515
:100A40003D2711241FBECFEFD8E0DEBFCDBF11E0A0
:100A5000A0E0B1E0E0E4FEE202C005900D92A83B08
:100A6000B107D9F722E0A8EBB1E001C01D92A9348B
:100A7000B207E1F70E94D40C0C941E170C940000EE
:100A800083FF02C05A9A01C05A9882FF02C05B9A43
:100A900001C05B9881FF02C05C9A01C05C9880FF36
:100AA00002C05F9A01C05F9887EE93E00197F1F76B
:100AB00000C000005D988FEC97E00197F1F700C04F
:100AC00000005D9A8FEC97E00197F1F700C00000FD
:100AD00008952FEF80E792E0215080409040E1F7A9
:100AE00000C000005E9883E00E9440058FE097E21E
:100AF0000197F1F700C0000083E00E9440058FECF1
:100B000097E00197F1F700C0000083E00E944005E4
:100B10008FEC97E00197F1F700C0000082E00E949F
:100B200040058FEC97E00197F1F700C0000082E0EC
:100B30000E94400588E00E9440058FEC97E00197F5
:100B4000F1F700C0000080E00E94400588E00E94AC
:100B500040058FEC97E00197F1F700C0000080E0BE
:100B60000E94400581E00E9440058FE99FE00197C7
:100B7000F1F700C0000080E00E94400586E00E947E
:100B800040058FEC97E00197F1F700C0000080E08E
:100B90000E9440058EE00E9440058FEC97E001978F
:100BA000F1F700C000005E9A0895FF920F931F9323
:100BB000CF93DF93EC015E9A8881811112C01EC031
:100BC0008E0188818823D1F082958F700E94400524
:100BD0002196F80180818F700E944005FA9481F778
:100BE0000DC082958F700E94400589918F700E9480
:100BF00040050F2EFEEFFF2EF02DE2CFDF91CF91BB
:100C00001F910F91FF900895CF93C62F90E4899F75
:100C1000C00D1124C0585E988C2F82958F700E9451
:100C200040058C2F8F700E9440055E9ACF910895E9
:100C30001092C50089E18093C40088E18093C100CF
:100C400086E08093C20008958091C000807208956C
:100C5000CF93C82F0E9424068823E1F3C093C600D7
:100C6000CF9108951F93CF93DF93EC018881811179
:100C700009C00DC08991882351F00E9428061150A7
:100C8000C9F705C00E94280621961EEFF3CFDF9119
:100C9000CF911F9108952F923F924F925F926F9242
:100CA0007F928F929F92AF92BF92CF92DF92EF92FC
:100CB000FF920F931F93CF93DF9300D000D01F922A
:100CC000CDB7DEB73C0169832A833B834C835D83C8
:100CD000602F70E080E090E00E94DA119B01AC018F
:100CE00060E070E080E090E40E94F312162F072F7E
:100CF000382E292EB30180E090E00E94DA112B01FA
:100D00003C01212F302F432D522DC501B4010E94EB
:100D10004611A70196010E94461120E034E244E703
:100D200059E40E9490129B01AC01C301B2010E94E0
:100D300090120E94AE1180E090E00E94DA116B01E7
:100D40007C0120E030E048EB51E46A817B818C81BA
:100D50009D810E9490129B01AC01C701B6010E94C7
:100D6000DE100E94AE1180E090E0FC01EE0FFF1F4C
:100D7000E651FF4F259134916217730770F0FC0123
:100D8000EE0FFF1FE451FF4F2591349126173707CF
:100D900020F09C012C53310907C001968E3224E0CB
:100DA000920719F720E030E08981811102C020E02C
:100DB00030E0822F932F0F900F900F900F900F9095
:100DC000DF91CF911F910F91FF90EF90DF90CF9027
:100DD000BF90AF909F908F907F906F905F904F905B
:100DE0003F902F9008952F923F924F925F926F9273
:100DF0007F928F929F92AF92BF92CF92DF92EF92AB
:100E0000FF920F931F93CF93DF93EC0149015A0197
:100E10006701780170E080E090E00E94DA119B01A8
:100E2000AC0160E070E080E090E40E94F312262EB6
:100E3000372E082F192FBE0180E090E00E94DA11B2
:100E40002B013C01222D332D402F512FC701B6011C
:100E50000E944611A50194010E94461120E034E24F
:100E600044E759E40E9490129B01AC01C301B20116
:100E70000E9490120E94AE11862F972FDF91CF9182
:100E80001F910F91FF90EF90DF90CF90BF90AF90A8
:100E90009F908F907F906F905F904F903F902F909A
:100EA0000895880F991FFC01EE59FE4F259134914A
:100EB000822F932F08951F93CF93DF9300D000D0FC
:100EC000CDB7DEB7162F1A8219821C821B82682FBB
:100ED00070E080E090E00E94DC112AE939E949E104
:100EE00050E40E9490120E94AE117A836983612FB0
:100EF00070E080E090E00E94DC112AE939E949E1E4
:100F000050E40E9490120E94AE117C836B8380910A
:100F1000FA01811102C029980CC02091E2013091A0
:100F2000E30189819A818217930710F0299A01C001
:100F300029988091F901811102C02A9810C04B8133
:100F40005C818091E2019091E30120EF30E0241B6D
:100F5000350B8217930710F02A9A01C02A988091C6
:100F6000E2019091E301803F910550F48091E2010C
:100F70009091E30101969093E3018093E20139C0DF
:100F80001092E3011092E20180912D0290912E02C5
:100F9000A0912F02B09130020196A11DB11D809346
:100FA0002D0290932E02A0932F02B09330026091F5
:100FB0002D0270912E0280912F029091300220E933
:100FC00031E040E050E00E945814672B682B692BF9
:100FD00081F46091E8017091E90182E090E00E9463
:100FE000A1146091E6017091E70180E090E00E9419
:100FF000A1140F900F900F900F90DF91CF911F9140
:1010000008954F925F926F927F928F929F92AF92CC
:10101000BF92CF92DF92EF92FF924B015C01690188
:101020007A0120E030E0A901C701B6010E94421117
:10103000882309F4FFC0A7019601C501B4010E94ED
:10104000DD1020E030E841E954E40E948C121816CB
:1010500064F41092DE011092DF011092E001109210
:10106000E10181E08093B90186C08091B9018130AE
:1010700009F081C01092B90120E030EC4FE056E455
:10108000C701B6010E94421188236CF480E097ECFE
:10109000A5E6B7E48093DE019093DF01A093E00121
:1010A000B093E10168C020E030EB43E356E4C701B0
:1010B000B6010E94421188236CF480E094E4A1E719
:1010C000B7E48093DE019093DF01A093E001B09339
:1010D000E10151C020E030EA47E556E4C701B6011E
:1010E0000E94421188236CF480E899E1ABE9B7E4EF
:1010F0008093DE019093DF01A093E001B093E101C2
:101100003AC020E030E94BE756E4C701B6010E943F
:10111000421188236CF480E091E9ADEBB7E4809351
:10112000DE019093DF01A093E001B093E10123C0C1
:1011300020E030EC4FE856E4C701B6010E944211AE
:1011400088236CF480E096E8ABEEB7E48093DE0190
:101150009093DF01A093E001B093E1010CC080E027
:1011600090E4A1E0B8E48093DE019093DF01A093C6
:10117000E001B093E101A5019401C701B6010E940D
:10118000DD10462F572F682F792F4093CE015093B3
:10119000CF016093D0017093D1016091DE01709115
:1011A000DF018091E0019091E1012091CE01309129
:1011B000CF014091D0015091D1010E94DE10462F05
:1011C000572F682F792F4093DE015093DF016093F2
:1011D000E0017093E1016091CE017091CF018091A7
:1011E000D0019091D1012091D6013091D701409149
:1011F000D8015091D9010E94DD10462F572F682F3A
:10120000792F4093DA015093DB016093DC017093F6
:10121000DD018091CE019091CF01A091D001B091DC
:10122000D1018093D6019093D701A093D801B093B8
:10123000D90120C01092DE011092DF011092E0016E
:101240001092E1011092DA011092DB011092DC01A0
:101250001092DD011092D6011092D7011092D801A0
:101260001092D9011092CE011092CF011092D001AC
:101270001092D1016091CE017091CF018091D00187
:101280009091D1014090DE015090DF016090E0012B
:101290007090E1018090DA019090DB01A090DC0178
:1012A000B090DD0120E635EE40ED5CE30E94901247
:1012B0006B017C0124E330E847E359E3C301B20149
:1012C0000E9490129B01AC01C701B6010E94DE1082
:1012D0006B017C012DEC3CEC4CEC5DE3C501B401F1
:1012E0000E9490129B01AC01C701B6010E94DE1062
:1012F000462F572F682F792F4093D2015093D30157
:101300006093D4017093D5016091D2017091D301A3
:101310008091D4019091D50120E030E048EC52E476
:101320000E948C12181664F480E090E0A8ECB2E4FD
:101330008093D2019093D301A093D401B093D501AF
:101340006091D2017091D3018091D4019091D50127
:1013500020E030E0A9010E944211882344F4109259
:10136000D2011092D3011092D4011092D501609154
:10137000D2017091D3018091D4019091D5010E9446
:10138000AE11862FFF90EF90DF90CF90BF90AF907F
:101390009F908F907F906F905F904F9008954F92A5
:1013A0005F926F927F928F929F92AF92BF92CF92F5
:1013B000DF92EF92FF924B015C0169017A0120E01C
:1013C00030E0A901C701B6010E944211882309F447
:1013D000FFC0A7019601C501B4010E94DD1020E005
:1013E00030E841E954E40E948C12181664F410921B
:1013F000CA011092CB011092CC011092CD0181E074
:101400008093B80186C08091B801813009F081C015
:101410001092B80120E030EC4FE056E4C701B6016D
:101420000E94421188236CF480E097ECA5E6B7E4B3
:101430008093CA019093CB01A093CC01B093CD01CE
:1014400068C020E030EB43E356E4C701B6010E94D8
:10145000421188236CF480E094E4A1E7B7E4809320
:10146000CA019093CB01A093CC01B093CD0151C0A0
:1014700020E030EA47E556E4C701B6010E94421178
:1014800088236CF480E899E1ABE9B7E48093CA0162
:101490009093CB01A093CC01B093CD013AC020E052
:1014A00030E94BE756E4C701B6010E944211882398
:1014B0006CF480E091E9ADEBB7E48093CA019093BE
:1014C000CB01A093CC01B093CD0123C020E030EC40
:1014D0004FE856E4C701B6010E94421188236CF41C
:1014E00080E096E8ABEEB7E48093CA019093CB011D
:1014F000A093CC01B093CD010CC080E090E4A1E0BA
:10150000B8E48093CA019093CB01A093CC01B0932F
:10151000CD01A5019401C701B6010E94DD10462F3F
:10152000572F682F792F4093BA015093BB016093D6
:10153000BC017093BD016091CA017091CB01809193
:10154000CC019091CD012091BA013091BB01409125
:10155000BC015091BD010E94DE10462F572F682F0D
:10156000792F4093CA015093CB016093CC017093C3
:10157000CD016091BA017091BB018091BC01909145
:10158000BD012091C2013091C3014091C40150912D
:10159000C5010E94DD10462F572F682F792F4093E9
:1015A000C6015093C7016093C8017093C90180912F
:1015B000BA019091BB01A091BC01B091BD01809393
:1015C000C2019093C301A093C401B093C50120C090
:1015D0001092CA011092CB011092CC011092CD0151
:1015E0001092C6011092C7011092C8011092C90151
:1015F0001092C2011092C3011092C4011092C50151
:101600001092BA011092BB011092BC011092BD0160
:101610006091BA017091BB018091BC019091BD01B4
:101620004090CA015090CB016090CC017090CD01E8
:101630008090C6019090C701A090C801B090C901E8
:1016400020E635EE40ED5CE30E9490126B017C01D8
:1016500024E330E847E359E3C301B2010E9490124A
:101660009B01AC01C701B6010E94DE106B017C0139
:101670002DEC3CEC4CEC5DE3C501B4010E949012F2
:101680009B01AC01C701B6010E94DE10462F572F07
:10169000682F792F4093BE015093BF016093C00122
:1016A0007093C1016091BE017091BF018091C00132
:1016B0009091C10120E030E048EC52E40E948C128D
:1016C000181664F480E090E0A8ECB2E48093BE01C8
:1016D0009093BF01A093C001B093C1016091BE017E
:1016E0007091BF018091C0019091C10120E030E074
:1016F000A9010E944211882344F41092BE01109265
:10170000BF011092C0011092C1016091BE017091A1
:10171000BF018091C0019091C1010E94AE11862F3E
:10172000FF90EF90DF90CF90BF90AF909F908F9001
:101730007F906F905F904F9008951F920F920FB619
:101740000F921124CF92DF92EF92FF920F931F938B
:101750002F933F934F935F936F937F938F939F93B9
:10176000AF93BF93CF93DF93EF93FF936091E40127
:101770008091E5010E945B0780917C008F7086302C
:1017800069F56091780070917900C090F301D09074
:10179000F401E090F501F090F60180E090E00E9405
:1017A000DA11A70196010E94DE10462F572F682FED
:1017B000792F4093F3015093F4016093F5017093F6
:1017C000F60187E080937C008091F7019091F80109
:1017D00001969093F8018093F701C8C0609178005A
:1017E00070917900C090EF01D090F001E090F1018C
:1017F000F090F20180E090E00E94DA11A7019601DA
:101800000E94DE10462F572F682F792F4093EF014B
:101810005093F0016093F1017093F20186E08093A0
:101820007C008091F7019091F8018036994009F091
:101830009DC06091F3017091F4018091F501909148
:10184000F60120E030E046E155E40E9446110E9496
:10185000AE117093ED016093EC016091EF01709116
:10186000F0018091F1019091F20120E030E046E139
:1018700055E40E9446110E94AE117093EB016093F3
:10188000EA011092F3011092F4011092F501109206
:10189000F6011092EF011092F0011092F1011092F6
:1018A000F2011092F8011092F70181E08093EE01AD
:1018B0008091E8019091E9010E9451076C018091AB
:1018C000E6019091E7010E945107EC018091FA0135
:1018D000811102C0C12CD12C8091F901811102C06B
:1018E000C0E0D0E08091EC019091ED01E12CF12C71
:1018F00000E210E423EC35E74EED52E46AE00E948A
:10190000F3068C01B60180E090E00E94DA116B01D1
:101910007C01B80180E090E00E94DA11A7019601F5
:101920000E9401088093E5018091EA019091EB010A
:10193000E12CF12C00E210E423EC35E74EED52E40B
:101940006AE00E94F3068C01BE0180E090E00E94F4
:10195000DA116B017C01B80180E090E00E94DA119D
:10196000A70196010E94CF098093E401EAE7F0E025
:10197000808180648083FF91EF91DF91CF91BF914F
:10198000AF919F918F917F916F915F914F913F9117
:101990002F911F910F91FF90EF90DF90CF900F90BC
:1019A0000FBE0F901F901895CF93DF9300D01F921A
:1019B000CDB7DEB7E1E6F0E080E8808382E08083A7
:1019C00086E084B983E087B98CEF8AB988E385B96A
:1019D0008CE088B90E9418060E9469058091E80190
:1019E0009091E901892B19F582E090E00E949B1407
:1019F0009093E9018093E8018091E8019091E901D9
:101A0000892B39F08091E8019091E9018335934069
:101A100070F088E592E09093E9018093E80160918D
:101A2000E8017091E90182E090E00E94A1148091A8
:101A3000E6019091E701892B19F580E090E00E9482
:101A40009B149093E7018093E6018091E6019091C9
:101A5000E701892B39F08091E6019091E701833508
:101A6000934070F088E592E09093E7018093E6015F
:101A70006091E6017091E70180E090E00E94A1147E
:101A8000E4E6F0E080811082EAE7F0E080818E6891
:101A90008083789486E080937C008081806480835A
:101AA00060E080E00E94040683E091E00E94D5059A
:101AB00060E081E00E94040686E091E00E94D50586
:101AC00066E080E00E94040685E191E00E94D50571
:101AD00066E081E00E94040685E191E00E94D50560
:101AE0006AE080E00E94040689E091E00E94D5054A
:101AF0006FE080E00E9404068BE091E00E94D50533
:101B00006AE081E00E94040689E091E00E94D50528
:101B10006FE081E00E9404068BE091E00E94D50511
:101B200062E080E00E9404066091E8017091E901A2
:101B300080E090E00E94DA1101E312E020E043E04F
:101B40000E947A140E94D50562E081E00E9404069A
:101B50006091E6017091E70180E090E00E94DA1167
:101B600020E043E00E947A140E94D5058DE091E0C8
:101B70000E9432068AE00E94280687E191E00E94D6
:101B800032068AE00E942806F1E0F983612C712C6C
:101B90001B821A82412C512C212C312C02C0412C49
:101BA000512C8091EE01882309F42BC11092EE0193
:101BB00089EA91E00E9432068091EC019091ED015A
:101BC000812C912C54016894A5F8B6F80F2EF3ECF3
:101BD000CF2EF5E7DF2EFEEDEF2EF2E4FF2EF02DF7
:101BE0000AE020E030E040E850EC61E00E944B0663
:101BF000BC01882777FD8095982F0E94DC1101E3B6
:101C000012E020E043E00E947A1467E080E00E9446
:101C10000406C8010E94D505C8010E94320682EB65
:101C200091E00E9432066091E50170E080E090E072
:101C30000E94DA1120E043E00E947A146CE080E018
:101C40000E940406C8010E94D505C8010E94320600
:101C500082EB91E00E9432068091EA019091EB01C3
:101C60000AE020E030E040E850EC61E00E944B06E2
:101C7000BC01882777FD8095982F0E94DC1101E335
:101C800012E020E043E00E947A1467E081E00E94C5
:101C90000406C8010E94D505C8010E94320682EBE5
:101CA00091E00E9432066091E40170E080E090E0F3
:101CB0000E94DA1120E043E00E947A146CE081E097
:101CC0000E940406C8010E94D505C8010E94320680
:101CD00082EB91E00E9432066091CE017091CF01BB
:101CE0008091D0019091D10120E635EE40ED5CE38A
:101CF0000E94901220E046E00E947A14C8010E94DF
:101D0000320682EB91E00E9432066091DE01709112
:101D1000DF018091E0019091E10124E330E847E3A5
:101D200059E30E94901220E046E00E947A14C80114
:101D30000E94320682EB91E00E9432066091DA0145
:101D40007091DB018091DC019091DD012DEC3CEC88
:101D50004CEC5DE30E94901220E046E00E947A1471
:101D6000C8010E94320682EB91E00E943206609127
:101D7000BA017091BB018091BC019091BD0120E638
:101D800035EE40ED5CE30E94901220E046E00E94B8
:101D90007A14C8010E94320682EB91E00E9432065A
:101DA0006091CA017091CB018091CC019091CD01DD
:101DB00024E330E847E359E30E94901220E046E034
:101DC0000E947A14C8010E94320682EB91E00E94C0
:101DD00032066091C6017091C7018091C80190914F
:101DE000C9012DEC3CEC4CEC5DE30E94901220E02C
:101DF00046E00E947A14C8010E9432068AE00E94DE
:101E0000280616B1F3B012FD30C02FEF621672062D
:101E100071F18FEF681A780A94E16916710499F4E8
:101E200060E080E00E94040684EB91E00E94D5050A
:101E300060E081E00E94040686EB91E00E94D505F7
:101E4000E1E0E98314C0F8EE6F16FDEF7F0679F448
:101E50008091FA01813021F41092FA01409807C074
:101E600081E08093FA01409A02C0612C712C13FD2D
:101E700030C08A819B818F3FEFEF9E0761F1019611
:101E80009B838A83449799F460E080E00E94040673
:101E900086EB91E00E94D50560E081E00E94040697
:101EA00084EB91E00E94D505F2E0F98314C08A81A9
:101EB0009B81883E9D4F79F48091F901813021F416
:101EC0001092F901419807C081E08093F901419A8D
:101ED00002C01B821A82F4FCB3C0FFEF2F163F062C
:101EE00009F45FC02FEF221A320A84E12816310468
:101EF00009F051C09981913029F58091E8019091C4
:101F0000E901029708F49EC08091E8019091E901EF
:101F100001979093E9018093E80162E080E00E94DC
:101F200004066091E8017091E90180E090E00E9470
:101F3000DA1101E312E020E043E00E947A140E94EB
:101F4000D50580C0E981E23009F07CC08091E601CE
:101F50009091E701029708F475C08091E601909195
:101F6000E70101979093E7018093E60162E081E049
:101F70000E9404066091E6017091E70180E090E024
:101F80000E94DA1101E312E020E043E00E947A149B
:101F90000E94D50557C0F9EE2F16FDEF3F0608F455
:101FA00051C02981213029F58091E8019091E90102
:101FB000079708F447C08091E8019091E9010597DF
:101FC0009093E9018093E80162E080E00E940406BA
:101FD0006091E8017091E90180E090E00E94DA11DF
:101FE00001E312E020E043E00E947A140E94D5054C
:101FF00029C08981823031F58091E6019091E70115
:10200000079700F18091E6019091E7010597909381
:10201000E7018093E60162E081E00E94040660919E
:10202000E6017091E70180E090E00E94DA1101E39F
:1020300012E020E043E00E947A140E94D50502C01D
:10204000212C312CF3FCABCD9FEF4916590609F436
:1020500061C0EFEF4E1A5E0AF4E14F16510409F029
:1020600053C02981213031F58091E8019091E90137
:102070008235934008F095CD8091E8019091E90177
:1020800001969093E9018093E80162E080E00E946C
:1020900004066091E8017091E90180E090E00E94FF
:1020A000DA1101E312E020E043E00E947A140E947A
:1020B000D50577CDF981F23009F073CD8091E60135
:1020C0009091E7018235934008F06BCD8091E60155
:1020D0009091E70101969093E7018093E60162E019
:1020E00081E00E9404066091E6017091E70180E0C2
:1020F00090E00E94DA1101E312E020E043E00E9448
:102100007A140E94D5054DCD89EE48168DEF5806FC
:1021100008F447CD9981913031F58091E801909193
:10212000E9018D34934008F03CCD8091E801909115
:10213000E90105969093E9018093E80162E080E06F
:102140000E9404066091E8017091E90180E090E04E
:102150000E94DA1101E312E020E043E00E947A14C9
:102160000E94D5051ECDF981F23009F01ACD80917B
:10217000E6019091E7018D34934008F012CD8091F3
:10218000E6019091E70105969093E7018093E601BF
:1021900062E081E00E9404066091E6017091E7012F
:1021A00080E090E00E94DA1101E312E020E043E0D9
:1021B0000E947A140E94D505F4CC5058BB27AA2758
:1021C0000ED070C161D130F066D120F031F49F3F64
:1021D00011F41EF456C10EF4E095E7FB4CC1E92F53
:1021E00072D180F3BA17620773078407950718F056
:1021F00071F49EF58AC10EF4E0950B2EBA2FA02D36
:102200000B01B90190010C01CA01A0011124FF27A3
:10221000591B99F0593F50F4503E68F11A16F0409E
:10222000A22F232F342F4427585FF3CF469537959D
:102230002795A795F0405395C9F77EF41F16BA0B62
:10224000620B730B840BBAF09150A1F0FF0FBB1F10
:10225000661F771F881FC2F70EC0BA0F621F731F59
:10226000841F48F4879577956795B795F7959E3FB6
:1022700008F0B3CF9395880F08F09927EE0F979544
:1022800087950895D4D008F481E008950CD00AC150
:1022900002D140F0F9D030F021F45F3F19F0EBC0EB
:1022A000511134C1EEC00FD198F39923C9F35523CE
:1022B000B1F3951B550BBB27AA2762177307840739
:1022C00038F09F5F5F4F220F331F441FAA1FA9F3EF
:1022D00033D00E2E3AF0E0E830D091505040E695E1
:1022E000001CCAF729D0FE2F27D0660F771F881F42
:1022F000BB1F261737074807AB07B0E809F0BB0B31
:10230000802DBF01FF2793585F4F2AF09E3F510554
:1023100068F0B1C0FBC05F3FECF3983EDCF38695FC
:1023200077956795B795F7959F5FC9F7880F911DCA
:102330009695879597F90895E1E0660F771F881FB6
:10234000BB1F621773078407BA0720F0621B730B69
:10235000840BBA0BEE1F88F7E0950895BCD088F087
:102360009F5790F0B92F9927B751A0F0D1F0660F81
:10237000771F881F991F1AF0BA95C9F712C0B1309C
:1023800081F0C3D0B1E00895C0C0672F782F8827AF
:10239000B85F39F0B93FCCF3869577956795B395DB
:1023A000D9F73EF490958095709561957F4F8F4F4A
:1023B0009F4F0895E89409C097FB3EF4909580954F
:1023C000709561957F4F8F4F9F4F9923A9F0F92FFB
:1023D00096E9BB279395F695879577956795B79579
:1023E000F111F8CFFAF4BB0F11F460FF1BC06F5F5F
:1023F0007F4F8F4F9F4F16C0882311F096E911C071
:10240000772321F09EE8872F762F05C0662371F091
:1024100096E8862F70E060E02AF09A95660F771FA5
:10242000881FDAF7880F9695879597F90895990F81
:102430000008550FAA0BE0E8FEEF16161706E8078E
:10244000F907C0F012161306E407F50798F0621BAF
:10245000730B840B950B39F40A2661F0232B242B84
:10246000252B21F408950A2609F4A140A6958FEFA3
:10247000811D811D089597F99F6780E870E060E0F5
:1024800008959FEF80EC089500240A94161617060D
:1024900018060906089500240A9412161306140655
:1024A00005060895092E0394000C11F4882352F0B8
:1024B000BB0F40F4BF2B11F460FF04C06F5F7F4F70
:1024C0008F4F9F4F089557FD9058440F551F59F057
:1024D0005F3F71F04795880F97FB991F61F09F3F11
:1024E00079F087950895121613061406551FF2CF3A
:1024F0004695F1DF08C0161617061806991FF1CF8A
:1025000086957105610508940895E894BB276627B0
:102510007727CB0197F908958ADF08F48FEF0895A4
:102520000BD0C0CFB1DF28F0B6DF18F0952309F04B
:10253000A2CFA7CF1124EACFC6DFA0F3959FD1F396
:10254000950F50E0551F629FF001729FBB27F00D61
:10255000B11D639FAA27F00DB11DAA1F649F6627B6
:10256000B00DA11D661F829F2227B00DA11D621F05
:10257000739FB00DA11D621F839FA00D611D221FBF
:10258000749F3327A00D611D231F849F600D211DA3
:10259000822F762F6A2F11249F5750408AF0E1F046
:1025A00088234AF0EE0FFF1FBB1F661F771F881F8F
:1025B00091505040A9F79E3F510570F05CCFA6CFD7
:1025C0005F3FECF3983EDCF3869577956795B7957A
:1025D000F795E7959F5FC1F7FE2B880F911D9695A4
:1025E000879597F90895FA01EE0FFF1F30962105A0
:1025F000310599F16115710561F48038BFE39B07DE
:1026000049F168949038810561F08038BFEF9B07ED
:1026100041F0992342F5FF3FE1053105210511F114
:10262000E8940894E795D901AA2329F4AB2FBE2F8B
:10263000F85FD0F310C0FF5F70F4A695E0F7F739AC
:1026400050F019F0FF3A38F49F779F930CD00F9019
:1026500007FC905808953EF014CF60E070E080E8E9
:102660009FE308954FE79F775F934F933F932F9397
:102670009ED02F913F914F915F9152DF05C019F489
:102680000EF0F9CE42CFFDCE26DFC8F39638C0F764
:1026900007F80F92E8942BE33AEA48EB5FE74EDF46
:1026A0000F920F920F924DB75EB70F92C0D0E8E62F
:1026B000F0E016D04F915F91EF91FF91E595EE1FFD
:1026C000FF1F49F0FE57E0684427EE0F441FFA95BC
:1026D000E1F74195550B32D00F9007FE26C00895C3
:1026E000DF93CF931F930F93FF92EF92DF927B01C3
:1026F0008C01689405C0DA2EEF011EDFFE01E8941C
:10270000A5912591359145915591AEF3EF0167DD86
:10271000FE019701A801DA9479F7DF90EF90FF901E
:102720000F911F91CF91DF9108959B01AC0160E063
:1027300070E080E89FE3AACD9ECEACC0CCDEE8F38B
:102740009923D9F3940F511DBBF39150504094F04D
:1027500059F0882332F0660F771F881F9150504040
:10276000C1F79E3F510544F7880F911D96958795B7
:1027700097F908955F3FACF0983E9CF0BB27869593
:1027800077956795B79508F4B1609395C1F7BB0F3E
:1027900058F711F460FFE8CF6F5F7F4F8F4F9F4F67
:1027A000E3CFB4CE0EF076C06CCE689464CE93DEE8
:1027B000C8F39923D1F3C6F3DF93CF931F930F93FD
:1027C000FF92C92FDD2788232AF02197660F771FF4
:1027D000881FDAF720E030E040E85FEB9FE38839BC
:1027E00020F0803E30F021968F77E8DCE0E9F0E0E1
:1027F00003C0E4DCEDEBF0E073DF8B01BE01EC0124
:10280000FB2E6F5771097595771F880B990BD4DDD7
:1028100028E132E741E35FE38FDEAF2D9801AE019F
:10282000FF900F911F91CF91DF91D9DC3BCEFA0140
:10283000DC01AA0FBB1F9B01AC01BF5728F4222764
:102840003327442750781FC0B75188F4AB2F00249A
:10285000469537952795011CA395D2F3002069F082
:10286000220F331F441FB395DAF30DD0A6CC61308D
:102870007105A0E88A07B94630F49B01AC016627D0
:10288000772788279078309621F020833183428300
:10289000538308959F3F31F0915020F487957795A9
:1028A0006795B795880F911D9695879597F9089527
:1028B000A1E21A2EAA1BBB1BFD010DC0AA1FBB1F44
:1028C000EE1FFF1FA217B307E407F50720F0A21BB6
:1028D000B30BE40BF50B661F771F881F991F1A9423
:1028E00069F760957095809590959B01AC01BD014D
:1028F000CF010895EF920F931F93CF93C02F47FFFF
:1029000002C034E101C034E0E42FFF27E7FDF09579
:10291000F7FF03C0F195E195F109E32E022F2E2F69
:102920004C2F512F0E94A7148C2F912FCF911F91C4
:102930000F91EF900895A8E1B0E042E050E00C94D0
:10294000FE160196272F0E940D170C940C176F92FC
:102950007F929F92AF92BF92CF92DF92EF92FF92BF
:102960000F931F93CF93DF93CDB7DEB729970FB6A1
:10297000F894DEBF0FBECDBF6A01B22E102F0C330C
:1029800018F4F02EF39402C05CE3F52E0F2D27E02F
:10299000AE014F5F5F4F0E9424167981272F297067
:1029A000213031F0E1FC06C0E0FE06C060E205C067
:1029B0006DE203C06BE201C060E073FF3DC06623BF
:1029C00011F084E001C083E08B1510F4B81A01C047
:1029D000B12CE4FC0BC08B2DF60190E202C0919368
:1029E00081508111FCCFCB0CD11CB12C662319F086
:1029F000D6016D936D01E2FE0AC08EE4F60180837C
:102A000091E491838283F3E0CF0ED11C0CC08EE65B
:102A1000D6018C9391E611969C93119712968C9304
:102A2000B3E0CB0ED11C8B2DF60190E202C0919346
:102A300081508111FCCF40C072FF45C0662311F068
:102A400084E001C083E08B1510F4B81A01C0B12CEA
:102A5000E4FC0BC08B2DF60190E202C091938150F3
:102A60008111FCCFCB0CD11CB12C662319F0F601DF
:102A700061936F01E2FE0EC089E4D6018C938EE46F
:102A800011968C93119786E412968C93B3E0CB0E3B
:102A9000D11C0AC089E6F60180838EE6818386E632
:102AA0008283F3E0CF0ED11C8B2DF60190E202C0A1
:102AB000919381508111FCCFF601EB0DF11D108235
:102AC0002EEF3FEFACC0A1E0611101C0A0E04A2FA2
:102AD00050E01816190624F49C012F5F3F4F02C0E6
:102AE00021E030E0240F351F112329F0412F50E061
:102AF0004F5F5F4F02C040E050E0420F531F2B2D4D
:102B000030E04217530714F4B41A01C0B12C3E2D23
:102B10003071E4FC0DC0E3FC0BC02B2DF60140E24C
:102B200002C0419321502111FCCFCB0CD11CB12C00
:102B3000AA2319F0D6016D936D0131110BC02B2D15
:102B4000F60130E302C0319321502111FCCFCB0CB0
:102B5000D11CB12CF80E0A8140E1A42EA72274FFEB
:102B600003C0013309F4FA941F142CF42F2D2930DB
:102B700018F028E001C021E0AC0197FF02C040E05E
:102B800050E060E070E03EE2932EFC01E21BF109B0
:102B90009F01DC01A41BB50BFE013196EA0FFB1F60
:102BA000A12FB0E0662477246A1A7B0A4F3F1FEFFB
:102BB000510719F4D6019D926D018417950754F0C1
:102BC000241735073CF47F01E60EF71ED701119656
:102BD0001C9101C010E3415051096F5F7F4F4615B2
:102BE000570524F0D6011D936D01E0CF4817590712
:102BF00039F4063320F4053319F4A11001C011E3B0
:102C0000F60111938B2DDF0190E202C09D9381505C
:102C10008111FCCFEB0DF11D108220E030E0C901E5
:102C200029960FB6F894DEBF0FBECDBFDF91CF91CE
:102C30001F910F91FF90EF90DF90CF90BF90AF90DA
:102C40009F907F906F900895283008F027E03327F9
:102C5000DA01990F311D87FD9160009661057105BC
:102C600039F432602E5F3D9330E32A95E1F7089501
:102C70009F3F30F080387105610509F03C5F3C5F93
:102C80003D93913008F08068911DDF93CF931F939F
:102C90000F93FF92EF92192F987F9695E92F9695B3
:102CA0009695E90FFF27EE55F64F99273327EE2427
:102CB000FF24A701E70105900894079428F4360F34
:102CC000E71EF81E491F511D660F771F881F991FA9
:102CD0000694A1F70590079428F4E70EF81E491F03
:102CE000561FC11D770F881F991F661F0694A1F7F5
:102CF0000590079428F4F80E491F561FC71FD11DD1
:102D0000880F991F661F771F0694A1F705900794F7
:102D100020F4490F561FC71FD81F990F661F771F32
:102D2000881F0694A9F784911095177041F0D695E5
:102D3000C79557954795F794E7941A95C1F7E8E436
:102D4000F9E06894159015913591659195910590EC
:102D50007FE27395E118F10A430B560BC90BD009BA
:102D6000C0F7E10CF11E431F561FC91FD01D7EF492
:102D7000703311F48A95E6CFE894015030F0080FD3
:102D80000AF40027021708F4202F2395022F7A3324
:102D900028F079E37D932A95E9F710C07D932A9571
:102DA00089F6069497956795379517951794E118C6
:102DB000F10A430B560BC90BD00998F023957E916D
:102DC00073957A3308F070E37C932013B8F77E9103
:102DD00070617D9330F0839571E37D9370E32A9564
:102DE000E1F71124EF90FF900F911F91CF91DF91A8
:102DF000992787FD90950895DC01CB01FC01F99995
:102E0000FECF06C0F2BDE1BDF89A319600B40D9236
:102E100041505040B8F70895262FF999FECF92BD42
:102E200081BDF89A019700B4021639F01FBA20BD8F
:102E30000FB6F894FA9AF99A0FBE0895F894FFCF56
:102E40002564003E530020530046002500434C45B6
:102E5000415244415441004C4142454C2C54696D0F
:102E6000652C48656174657220312054656D702C45
:102E700020486561746572203120506F7765722C2F
:102E80002048656174657220322054656D702C2075
:102E9000486561746572203220506F7765722C48E6
:102EA00065617465722031204572726F722C4865BD
:102EB00061746572203120492C4865617465722007
:102EC0003120442C4865617465722032204572724D
:102ED0006F722C486561746572203220492C4865F8
:102EE000617465722032204400444154412C54499D
:082EF0004D452C003E002000BE
:00000001FF
